{
  "_format": "hh-sol-artifact-1",
  "contractName": "OSAAToken",
  "sourceName": "contracts/OSAAToken.sol",
  "abi": [
    {
      "inputs": [
        {
          "internalType": "uint256",
          "name": "initialSupply",
          "type": "uint256"
        }
      ],
      "stateMutability": "nonpayable",
      "type": "constructor"
    },
    {
      "anonymous": false,
      "inputs": [
        {
          "indexed": true,
          "internalType": "address",
          "name": "to",
          "type": "address"
        },
        {
          "indexed": false,
          "internalType": "uint256",
          "name": "amount",
          "type": "uint256"
        }
      ],
      "name": "Mint",
      "type": "event"
    },
    {
      "anonymous": false,
      "inputs": [
        {
          "indexed": true,
          "internalType": "address",
          "name": "previousOwner",
          "type": "address"
        },
        {
          "indexed": true,
          "internalType": "address",
          "name": "newOwner",
          "type": "address"
        }
      ],
      "name": "OwnershipTransferred",
      "type": "event"
    },
    {
      "anonymous": false,
      "inputs": [
        {
          "indexed": true,
          "internalType": "address",
          "name": "from",
          "type": "address"
        },
        {
          "indexed": true,
          "internalType": "address",
          "name": "to",
          "type": "address"
        },
        {
          "indexed": false,
          "internalType": "uint256",
          "name": "value",
          "type": "uint256"
        }
      ],
      "name": "Transfer",
      "type": "event"
    },
    {
      "inputs": [
        {
          "internalType": "address",
          "name": "",
          "type": "address"
        }
      ],
      "name": "balances",
      "outputs": [
        {
          "internalType": "uint256",
          "name": "",
          "type": "uint256"
        }
      ],
      "stateMutability": "view",
      "type": "function"
    },
    {
      "inputs": [],
      "name": "decimals",
      "outputs": [
        {
          "internalType": "uint8",
          "name": "",
          "type": "uint8"
        }
      ],
      "stateMutability": "view",
      "type": "function"
    },
    {
      "inputs": [
        {
          "internalType": "address",
          "name": "account",
          "type": "address"
        }
      ],
      "name": "getBalance",
      "outputs": [
        {
          "internalType": "uint256",
          "name": "",
          "type": "uint256"
        }
      ],
      "stateMutability": "view",
      "type": "function"
    },
    {
      "inputs": [
        {
          "internalType": "address",
          "name": "to",
          "type": "address"
        },
        {
          "internalType": "uint256",
          "name": "amount",
          "type": "uint256"
        }
      ],
      "name": "mint",
      "outputs": [],
      "stateMutability": "nonpayable",
      "type": "function"
    },
    {
      "inputs": [],
      "name": "name",
      "outputs": [
        {
          "internalType": "string",
          "name": "",
          "type": "string"
        }
      ],
      "stateMutability": "view",
      "type": "function"
    },
    {
      "inputs": [],
      "name": "owner",
      "outputs": [
        {
          "internalType": "address",
          "name": "",
          "type": "address"
        }
      ],
      "stateMutability": "view",
      "type": "function"
    },
    {
      "inputs": [],
      "name": "renounceOwnership",
      "outputs": [],
      "stateMutability": "nonpayable",
      "type": "function"
    },
    {
      "inputs": [],
      "name": "symbol",
      "outputs": [
        {
          "internalType": "string",
          "name": "",
          "type": "string"
        }
      ],
      "stateMutability": "view",
      "type": "function"
    },
    {
      "inputs": [],
      "name": "totalSupply",
      "outputs": [
        {
          "internalType": "uint256",
          "name": "",
          "type": "uint256"
        }
      ],
      "stateMutability": "view",
      "type": "function"
    },
    {
      "inputs": [
        {
          "internalType": "address",
          "name": "newOwner",
          "type": "address"
        }
      ],
      "name": "transferOwnership",
      "outputs": [],
      "stateMutability": "nonpayable",
      "type": "function"
    },
    {
      "inputs": [
        {
          "internalType": "address",
          "name": "to",
          "type": "address"
        },
        {
          "internalType": "uint256",
          "name": "amount",
          "type": "uint256"
        }
      ],
      "name": "transferTokens",
      "outputs": [],
      "stateMutability": "nonpayable",
      "type": "function"
    }
  ],
  "bytecode": "0x60806040526040518060400160405280600a81526020017f4f53414120546f6b656e00000000000000000000000000000000000000000000815250600290816200004a9190620004ca565b506040518060400160405280600481526020017f4f5341410000000000000000000000000000000000000000000000000000000081525060039081620000919190620004ca565b503480156200009f57600080fd5b506040516200174b3803806200174b8339818101604052810190620000c59190620005e7565b620000e5620000d96200018460201b60201c565b6200018c60201b60201c565b600180819055506000811162000132576040517f08c379a00000000000000000000000000000000000000000000000000000000081526004016200012990620006a0565b60405180910390fd5b8060048190555080600560003373ffffffffffffffffffffffffffffffffffffffff1673ffffffffffffffffffffffffffffffffffffffff1681526020019081526020016000208190555050620006c2565b600033905090565b60008060009054906101000a900473ffffffffffffffffffffffffffffffffffffffff169050816000806101000a81548173ffffffffffffffffffffffffffffffffffffffff021916908373ffffffffffffffffffffffffffffffffffffffff1602179055508173ffffffffffffffffffffffffffffffffffffffff168173ffffffffffffffffffffffffffffffffffffffff167f8be0079c531659141344cd1fd0a4f28419497f9722a3daafe3b4186f6b6457e060405160405180910390a35050565b600081519050919050565b7f4e487b7100000000000000000000000000000000000000000000000000000000600052604160045260246000fd5b7f4e487b7100000000000000000000000000000000000000000000000000000000600052602260045260246000fd5b60006002820490506001821680620002d257607f821691505b602082108103620002e857620002e76200028a565b5b50919050565b60008190508160005260206000209050919050565b60006020601f8301049050919050565b600082821b905092915050565b600060088302620003527fffffffffffffffffffffffffffffffffffffffffffffffffffffffffffffffff8262000313565b6200035e868362000313565b95508019841693508086168417925050509392505050565b6000819050919050565b6000819050919050565b6000620003ab620003a56200039f8462000376565b62000380565b62000376565b9050919050565b6000819050919050565b620003c7836200038a565b620003df620003d682620003b2565b84845462000320565b825550505050565b600090565b620003f6620003e7565b62000403818484620003bc565b505050565b5b818110156200042b576200041f600082620003ec565b60018101905062000409565b5050565b601f8211156200047a576200044481620002ee565b6200044f8462000303565b810160208510156200045f578190505b620004776200046e8562000303565b83018262000408565b50505b505050565b600082821c905092915050565b60006200049f600019846008026200047f565b1980831691505092915050565b6000620004ba83836200048c565b9150826002028217905092915050565b620004d58262000250565b67ffffffffffffffff811115620004f157620004f06200025b565b5b620004fd8254620002b9565b6200050a8282856200042f565b600060209050601f8311600181146200054257600084156200052d578287015190505b620005398582620004ac565b865550620005a9565b601f1984166200055286620002ee565b60005b828110156200057c5784890151825560018201915060208501945060208101905062000555565b868310156200059c578489015162000598601f8916826200048c565b8355505b6001600288020188555050505b505050505050565b600080fd5b620005c18162000376565b8114620005cd57600080fd5b50565b600081519050620005e181620005b6565b92915050565b6000602082840312156200060057620005ff620005b1565b5b60006200061084828501620005d0565b91505092915050565b600082825260208201905092915050565b7f496e697469616c20737570706c79206d7573742062652067726561746572207460008201527f68616e2030000000000000000000000000000000000000000000000000000000602082015250565b60006200068860258362000619565b915062000695826200062a565b604082019050919050565b60006020820190508181036000830152620006bb8162000679565b9050919050565b61107980620006d26000396000f3fe608060405234801561001057600080fd5b50600436106100a95760003560e01c8063715018a611610071578063715018a6146101545780638da5cb5b1461015e57806395d89b411461017c578063bec3fa171461019a578063f2fde38b146101b6578063f8b2cb4f146101d2576100a9565b806306fdde03146100ae57806318160ddd146100cc57806327e235e3146100ea578063313ce5671461011a57806340c10f1914610138575b600080fd5b6100b6610202565b6040516100c39190610ac5565b60405180910390f35b6100d4610290565b6040516100e19190610b00565b60405180910390f35b61010460048036038101906100ff9190610b7e565b610296565b6040516101119190610b00565b60405180910390f35b6101226102ae565b60405161012f9190610bc7565b60405180910390f35b610152600480360381019061014d9190610c0e565b6102b3565b005b61015c61043c565b005b610166610450565b6040516101739190610c5d565b60405180910390f35b610184610479565b6040516101919190610ac5565b60405180910390f35b6101b460048036038101906101af9190610c0e565b610507565b005b6101d060048036038101906101cb9190610b7e565b61079b565b005b6101ec60048036038101906101e79190610b7e565b61081e565b6040516101f99190610b00565b60405180910390f35b6002805461020f90610ca7565b80601f016020809104026020016040519081016040528092919081815260200182805461023b90610ca7565b80156102885780601f1061025d57610100808354040283529160200191610288565b820191906000526020600020905b81548152906001019060200180831161026b57829003601f168201915b505050505081565b60045481565b60056020528060005260406000206000915090505481565b601281565b6102bb610867565b6102c36108e5565b600073ffffffffffffffffffffffffffffffffffffffff168273ffffffffffffffffffffffffffffffffffffffff1603610332576040517f08c379a000000000000000000000000000000000000000000000000000000000815260040161032990610d24565b60405180910390fd5b6103478160045461093490919063ffffffff16565b60048190555061039f81600560008573ffffffffffffffffffffffffffffffffffffffff1673ffffffffffffffffffffffffffffffffffffffff1681526020019081526020016000205461093490919063ffffffff16565b600560008473ffffffffffffffffffffffffffffffffffffffff1673ffffffffffffffffffffffffffffffffffffffff168152602001908152602001600020819055508173ffffffffffffffffffffffffffffffffffffffff167f0f6798a560793a54c3bcfe86a93cde1e73087d944c0ea20544137d4121396885826040516104289190610b00565b60405180910390a261043861094a565b5050565b610444610867565b61044e6000610953565b565b60008060009054906101000a900473ffffffffffffffffffffffffffffffffffffffff16905090565b6003805461048690610ca7565b80601f01602080910402602001604051908101604052809291908181526020018280546104b290610ca7565b80156104ff5780601f106104d4576101008083540402835291602001916104ff565b820191906000526020600020905b8154815290600101906020018083116104e257829003601f168201915b505050505081565b61050f6108e5565b600073ffffffffffffffffffffffffffffffffffffffff168273ffffffffffffffffffffffffffffffffffffffff160361057e576040517f08c379a000000000000000000000000000000000000000000000000000000000815260040161057590610db6565b60405180910390fd5b80600560003373ffffffffffffffffffffffffffffffffffffffff1673ffffffffffffffffffffffffffffffffffffffff168152602001908152602001600020541015610600576040517f08c379a00000000000000000000000000000000000000000000000000000000081526004016105f790610e22565b60405180910390fd5b61065281600560003373ffffffffffffffffffffffffffffffffffffffff1673ffffffffffffffffffffffffffffffffffffffff16815260200190815260200160002054610a1790919063ffffffff16565b600560003373ffffffffffffffffffffffffffffffffffffffff1673ffffffffffffffffffffffffffffffffffffffff168152602001908152602001600020819055506106e781600560008573ffffffffffffffffffffffffffffffffffffffff1673ffffffffffffffffffffffffffffffffffffffff1681526020019081526020016000205461093490919063ffffffff16565b600560008473ffffffffffffffffffffffffffffffffffffffff1673ffffffffffffffffffffffffffffffffffffffff168152602001908152602001600020819055508173ffffffffffffffffffffffffffffffffffffffff163373ffffffffffffffffffffffffffffffffffffffff167fddf252ad1be2c89b69c2b068fc378daa952ba7f163c4a11628f55a4df523b3ef836040516107879190610b00565b60405180910390a361079761094a565b5050565b6107a3610867565b600073ffffffffffffffffffffffffffffffffffffffff168173ffffffffffffffffffffffffffffffffffffffff1603610812576040517f08c379a000000000000000000000000000000000000000000000000000000000815260040161080990610eb4565b60405180910390fd5b61081b81610953565b50565b6000600560008373ffffffffffffffffffffffffffffffffffffffff1673ffffffffffffffffffffffffffffffffffffffff168152602001908152602001600020549050919050565b61086f610a2d565b73ffffffffffffffffffffffffffffffffffffffff1661088d610450565b73ffffffffffffffffffffffffffffffffffffffff16146108e3576040517f08c379a00000000000000000000000000000000000000000000000000000000081526004016108da90610f20565b60405180910390fd5b565b60026001540361092a576040517f08c379a000000000000000000000000000000000000000000000000000000000815260040161092190610f8c565b60405180910390fd5b6002600181905550565b600081836109429190610fdb565b905092915050565b60018081905550565b60008060009054906101000a900473ffffffffffffffffffffffffffffffffffffffff169050816000806101000a81548173ffffffffffffffffffffffffffffffffffffffff021916908373ffffffffffffffffffffffffffffffffffffffff1602179055508173ffffffffffffffffffffffffffffffffffffffff168173ffffffffffffffffffffffffffffffffffffffff167f8be0079c531659141344cd1fd0a4f28419497f9722a3daafe3b4186f6b6457e060405160405180910390a35050565b60008183610a25919061100f565b905092915050565b600033905090565b600081519050919050565b600082825260208201905092915050565b60005b83811015610a6f578082015181840152602081019050610a54565b60008484015250505050565b6000601f19601f8301169050919050565b6000610a9782610a35565b610aa18185610a40565b9350610ab1818560208601610a51565b610aba81610a7b565b840191505092915050565b60006020820190508181036000830152610adf8184610a8c565b905092915050565b6000819050919050565b610afa81610ae7565b82525050565b6000602082019050610b156000830184610af1565b92915050565b600080fd5b600073ffffffffffffffffffffffffffffffffffffffff82169050919050565b6000610b4b82610b20565b9050919050565b610b5b81610b40565b8114610b6657600080fd5b50565b600081359050610b7881610b52565b92915050565b600060208284031215610b9457610b93610b1b565b5b6000610ba284828501610b69565b91505092915050565b600060ff82169050919050565b610bc181610bab565b82525050565b6000602082019050610bdc6000830184610bb8565b92915050565b610beb81610ae7565b8114610bf657600080fd5b50565b600081359050610c0881610be2565b92915050565b60008060408385031215610c2557610c24610b1b565b5b6000610c3385828601610b69565b9250506020610c4485828601610bf9565b9150509250929050565b610c5781610b40565b82525050565b6000602082019050610c726000830184610c4e565b92915050565b7f4e487b7100000000000000000000000000000000000000000000000000000000600052602260045260246000fd5b60006002820490506001821680610cbf57607f821691505b602082108103610cd257610cd1610c78565b5b50919050565b7f43616e6e6f74206d696e7420746f20746865207a65726f206164647265737300600082015250565b6000610d0e601f83610a40565b9150610d1982610cd8565b602082019050919050565b60006020820190508181036000830152610d3d81610d01565b9050919050565b7f43616e6e6f74207472616e7366657220746f20746865207a65726f206164647260008201527f6573730000000000000000000000000000000000000000000000000000000000602082015250565b6000610da0602383610a40565b9150610dab82610d44565b604082019050919050565b60006020820190508181036000830152610dcf81610d93565b9050919050565b7f496e73756666696369656e742062616c616e6365000000000000000000000000600082015250565b6000610e0c601483610a40565b9150610e1782610dd6565b602082019050919050565b60006020820190508181036000830152610e3b81610dff565b9050919050565b7f4f776e61626c653a206e6577206f776e657220697320746865207a65726f206160008201527f6464726573730000000000000000000000000000000000000000000000000000602082015250565b6000610e9e602683610a40565b9150610ea982610e42565b604082019050919050565b60006020820190508181036000830152610ecd81610e91565b9050919050565b7f4f776e61626c653a2063616c6c6572206973206e6f7420746865206f776e6572600082015250565b6000610f0a602083610a40565b9150610f1582610ed4565b602082019050919050565b60006020820190508181036000830152610f3981610efd565b9050919050565b7f5265656e7472616e637947756172643a207265656e7472616e742063616c6c00600082015250565b6000610f76601f83610a40565b9150610f8182610f40565b602082019050919050565b60006020820190508181036000830152610fa581610f69565b9050919050565b7f4e487b7100000000000000000000000000000000000000000000000000000000600052601160045260246000fd5b6000610fe682610ae7565b9150610ff183610ae7565b925082820190508082111561100957611008610fac565b5b92915050565b600061101a82610ae7565b915061102583610ae7565b925082820390508181111561103d5761103c610fac565b5b9291505056fea26469706673582212203a5b863e00206d899580d2f0af31c7ffd719e9bde1a0be5c29cff8b12655796764736f6c63430008140033",
  "linkReferences": {},
  "deployedLinkReferences": {}
}